:100000000C94CB040C94FC040C94FC040C94FC04A1
:100010000C94FC040C94FC040C94FC040C94FC0460
:100020000C94FC040C94FC040C94FC040C94FC0450
:100030000C94FC040C940F210C94FC040C94FC0410
:100040000C94FC040C94FC040C94FC040C94FC0430
:100050000C94FC040C94FC040C94FC040C94C5203B
:100060000C94FC040C9499210C946F210C94FC04C6
:100070000C94FC040C94FC040C94FC040C94FC0400
:100080000C94FC040C94FC040C94FC040C94FC04F0
:100090000C94FC040C94FC040C94FC040C94CF21F0
:1000A0000C94FC040C94FC040C94FC040C94FC04D0
:1000B0000C94FC040C94FC040C94FC040C94FC04C0
:1000C0000C94FC040C94FC040C94FC040C94FC04B0
:1000D0000C94FC040C94FC040C94FC040C94FC04A0
:1000E0000C94FC0405A84CCDB2D44EB93836A90204
:1000F0000C50B9918688083CA6AAAA2ABE00000026
:10010000803F0C9484050C94F2100C9449050C94D7
:100110005E050C947F050C946C050C94760B0C9486
:10012000EF220C94AA150C9451050C943C090C94E4
:1001300076050C94FC100C9485110C9480050C949D
:100140004F100C94D2090C94040C0C9445050C949B
:10015000AB1D0C943F0A0C948C090C949A090C94D6
:1001600001140C9459170C9469090C9454050C94BF
:10017000E60F0C9464050C943F050C94A80D0C94A8
:10018000970D0C94F4080C9468050C94EC080C94EE
:1001900081100C94A60F0C94190E0C94F0080C947A
:1001A00078090C9432150C94AD160C944D050C94F2
:1001B0008A0E0C945A170C94D3140C947A050C9450
:1001C0005A050C94720500407A10F35A00A0724E42
:1001D00018090010A5D4E80000E87648170000E4EC
:1001E0000B54020000CA9A3B000000E1F505000034
:1001F00080969800000040420F000000A086010099
:100200000000102700000000E80300000000640068
:10021000000000000A0000000000010000000000D3
:100220002C76D888DC674F0823DFC1DFAE59E1B1F7
:10023000B796E5E3E453C63AE651997696E8E6C206
:100240008426EB898C9B62ED407C6FFCEFBC9C9F0D
:1002500040F2BAA56FA5F490055A2AF75C936B6C2F
:10026000F9676DC11BFCE0E40D47FEF520E6B50023
:10027000D0ED902E0300943577050080841E080091
:1002800000204E0A000000C80C333333330F986E41
:1002900012831141EF8D2114893BE65516CFFEE6FE
:1002A000DB18D1844B381BF77C1D901DA4BBE424C4
:1002B000203284725E228100C9F124ECA1E53D2741
:1002C00000000000003E5B4F5B3E3E6B4F6B3E1CF0
:1002D0003E7C3E1C183C7E3C181C577D571C1C5E07
:1002E0007F5E1C00183C1800FFE7C3E7FF001824DE
:1002F0001800FFE7DBE7FF30483A060E2629792988
:1003000026407F050507407F05253F5A3CE73C5ABC
:100310007F3E1C1C08081C1C3E7F14227F22145F99
:100320005F005F5F06097F017F006689956A6060F4
:1003300060606094A2FFA29408047E040810207EEE
:10034000201008082A1C08081C2A08081E10101073
:10035000100C1E0C1E0C30383E3830060E3E0E06B9
:10036000000000000000005F00000007000700140C
:100370007F147F14242A7F2A1223130864623649CB
:100380005620500008070300001C224100004122B3
:100390001C002A1C7F1C2A08083E080800807030B8
:1003A0000008080808080000606000201008040227
:1003B0003E5149453E00427F40007249494946212D
:1003C00041494D331814127F1027454545393C4AA1
:1003D00049493141211109073649494936464949B8
:1003E000291E000014000000403400000008142200
:1003F000411414141414004122140802015909066E
:100400003E415D594E7C1211127C7F494949363E6E
:10041000414141227F4141413E7F494949417F0954
:100420000909013E414151737F0808087F00417F5F
:1004300041002040413F017F081422417F4040405D
:10044000407F021C027F7F0408107F3E4141413EF5
:100450007F090909063E4151215E7F091929462677
:100460004949493203017F01033F4040403F1F207B
:1004700040201F3F4038403F631408146303047852
:1004800004036159494D43007F4141410204081072
:1004900020004141417F04020102044040404040AD
:1004A000000307080020545478407F28444438381B
:1004B00044444428384444287F385454541800088D
:1004C0007E090218A4A49C787F0804047800447D67
:1004D00040002040403D007F1028440000417F4004
:1004E000007C047804787C08040478384444443858
:1004F000FC1824241818242418FC7C080404084838
:100500005454542404043F44243C4040207C1C2088
:1005100040201C3C4030403C44281028444C9090E3
:10052000907C4464544C440008364100000077003D
:1005300000004136080002010204023C2623263C4A
:100540001EA1A161123A4040207A385454555921D5
:1005500055557941225454784221555478402054BD
:100560005579400C1E52721239555555593954540B
:10057000545939555454580000457C410002457D7A
:10058000420001457C407D1211127DF0282528F0A3
:100590007C545545002054547C547C0A097F4932D0
:1005A000494949323A4444443A324A4848303A4147
:1005B00041217A3A42402078009DA0A07D3D4242F0
:1005C000423D3D4040403D3C24FF2424487E494379
:1005D000662B2FFC2F2BFF0929F620C0887E0903EC
:1005E00020545479410000447D413048484A323813
:1005F0004040227A007A0A0A727D0D19317D26293F
:10060000292F28262929292630484D402038080836
:10061000080808080808382F10C8ACBA2F1028346A
:10062000FA00007B000008142A142222142A14085D
:100630005500550055AA55AA55AAFF55FF55FF006C
:100640000000FF00101010FF00141414FF00101021
:10065000FF00FF1010F010F0141414FC001414F735
:1006600000FF0000FF00FF1414F404FC1414171022
:100670001F10101F101F1414141F00101010F00072
:100680000000001F101010101F10101010F01000AC
:100690000000FF101010101010101010FF100000BC
:1006A00000FF140000FF00FF00001F10170000FCF7
:1006B00004F414141710171414F404F40000FF00C9
:1006C000F714141414141414F700F7141414171452
:1006D00010101F101F141414F4141010F010F00058
:1006E000001F101F0000001F14000000FC14000079
:1006F000F010F01010FF10FF141414FF141010105D
:100700001F00000000F010FFFFFFFFFFF0F0F0F00F
:10071000F0FFFFFF0000000000FFFF0F0F0F0F0FA3
:100720003844443844FC4A4A4A347E0202060602EF
:100730007E027E0263554941633844443C04407E56
:10074000201E2006027E020299A5E7A5991C2A49CF
:100750002A1C4C7201724C304A4D4D30304878485A
:1007600030BC625A463D3E494949007E0101017E46
:100770002A2A2A2A2A44445F444440514A44404099
:10078000444A51400000FF0103E080FF00000808D8
:100790006B6B083612362436060F090F0600001858
:1007A000180000001010003040FF0101001F01017F
:1007B0001E00191D1712003C3C3C3C0000000000CC
:1007C000EF03038002CF0300C130ED046403128104
:1007D000E803850078CB05392C003402F70120EAC4
:1007E000020000C00123C10110C5023E28C70186D6
:1007F0003601483701003A0155B1020018B6030826
:100800008227F20100260101E00F0F312B0C0E08A8
:100810004EF1370710030E0900E10F000E1403110B
:100820000731C148080F0C31360F11802980003D77
:100830003D3D20526566726967657261646F7261E1
:100840004D6F6465726E61205446542076352E30AB
:10085000203D3D3D0020546D3D0020433D002520BE
:10086000503D0020483D002053503D005D20543D48
:10087000005B0000002100240027002A002D00302A
:1008800000330001010000040107010A01000020FB
:10089000002300260029002C002F00320000010058
:1008A0000003010601090100000A0B02090C0D0EEC
:1008B0000807030401000000000000000000000021
:1008C0000000000000000000000000000000000028
:1008D00000000012111000000000000000000000E5
:1008E0000000000000000000000000000002010203
:1008F0001020200808102040102040800201020132
:1009000008040201010204081020408080402010E9
:100910000804020180040201804020100804020142
:1009200008040201010204081020408001020408AA
:100930001020408000002200250028002B002E00FF
:100940003100340002010000050108010B0105051A
:100950000505070508080808020202020A0A080835
:100960000404040401010101010101010303030363
:1009700003030303040707070C0C0C0C0C0C0C0CF2
:100980000202020206060606060606060B0B0B0B03
:100990000B0B0B0BEF2211241FBECFEFD1E2DEBFFA
:1009A000CDBF00E00CBF15E0A0E0B2E0E0E4FEE760
:1009B00000E00BBF02C007900D92A033B107D9F73A
:1009C00027E0A0E3B5E001C01D92A135B207E1F731
:1009D00014E0CBECD4E000E006C021970109802FA1
:1009E000FE010E942C3CCA3CD10780E00807A9F711
:1009F0000E940F240C941E3F0C94000096E0899FE7
:100A0000D0011124A156B94F90967C936E935F97B5
:100A100091E091969C939197E0910C07F0910D07CE
:100A200090910B07992339F0309751F0811108C04C
:100A30008091BB061994309719F05C968C91FACF8F
:100A400008958150823108F05AC0E82FF0E08827DD
:100A5000E35DFA4F8F4F0C942C3C4D0551053F053B
:100A6000450549057F0554055A055E056405680579
:100A70006C05720576057F057A05800584058091F1
:100A800080008F77809380000895809180008F7D13
:100A9000F9CF80918000877FF5CF84B58F7784BDB3
:100AA000089584B58F7DFBCF8091B0008F778093C0
:100AB000B00008958091B0008F7DF9CF80919000B3
:100AC0008F77809390000895809190008F7DF9CF6B
:100AD00080919000877FF5CF8091A0008F778093E1
:100AE000A00008958091A0008F7DF9CF8091A00093
:100AF000877FF5CF809120018F7780932001089523
:100B0000809120018F7DF9CF80912001877FF5CFE3
:100B1000CF93DF93282F30E0F901E955F74F849107
:100B2000F901E251F74FD491F901E25BF64FC4911C
:100B3000CC23A1F081110E942105EC2FF0E0EE0FF3
:100B4000FF1FE357F74FA591B491EC91ED2381E09E
:100B500090E009F480E0DF91CF91089580E090E08B
:100B6000FACF1F93CF93DF93282F30E0F901E95597
:100B7000F74F8491F901E251F74FD491F901E25B0B
:100B8000F64FC491CC23A9F0162F81110E942105A4
:100B9000EC2FF0E0EE0FFF1FEC5CF64FA591B49147
:100BA0008FB7F894EC91111108C0D095DE23DC9337
:100BB0008FBFDF91CF911F910895DE2BF8CFCF9398
:100BC000DF9390E0FC01E251F74F2491825B964F56
:100BD000FC0184918823C9F090E0880F991FFC01E3
:100BE000ED58F74FA591B491FC01EC5CF64FC5911F
:100BF000D49161110DC09FB7F8948C9120958223F8
:100C00008C938881282328839FBFDF91CF910895FB
:100C1000623051F49FB7F8943C91822F80958323E2
:100C20008C93E8812E2BEFCF8FB7F894EC912E2B7D
:100C30002C938FBFEACF4F925F926F927F928F92E9
:100C40009F92AF92BF92CF92DF92EF92FF920F935B
:100C50001F93CF938C014A015B01809129028F3150
:100C600099F08F3F09F453C0CF911F910F91FF90DE
:100C7000EF90DF90CF90BF90AF909F908F907F903C
:100C80006F905F904F900895EDEEF8E0C491C7FD2E
:100C9000EBCF61E08FE10E94DF052801712C612C10
:100CA000CC23F1F0980150E040E0C23009F003C1DC
:100CB00028013A0160E970ED83E090E00E94D638A7
:100CC00069017A0181E0C81AD108E108F10893E0CE
:100CD0008FEFC816D104E104F10409F00CF49FC1B0
:100CE00068E478EE81E090E0A30192010E94D6389A
:100CF00069017A0181E0C81AD108E108F10894E09D
:100D0000C1118DC185B5887F836085BDE9C08FE144
:100D100080932902EDEEF8E0C4918C2FCF3F09F4C7
:100D2000A3CFC23009F468C060F4CC2379F1C1309C
:100D300009F444C087FD98CF61E08FE10E94DF0590
:100D4000B1CFC43009F499C008F478C0C53091F728
:100D500010922001109221018091210188608093DE
:100D6000210180912101816080932101EDE6F9E06C
:100D7000E491F0E0EE0FFF1FEC5CF64F859194914B
:100D8000EDE0F9E0E491E093E10583CF14BC15BCFC
:100D900084B5826084BD85B5816085BDEDE6F9E0EE
:100DA000E491F0E0EE0FFF1FEC5CF64F859194911B
:100DB000EDE0F9E0E491E093E8056BCF109280005C
:100DC00010928100809181008860809381008091E1
:100DD0008100816080938100EDE6F9E0E491F0E02C
:100DE000EE0FFF1FEC5CF64F85919491EDE0F9E07A
:100DF000E491E093E7054DCF1092B0001092B1005E
:100E00008091B00082608093B0008091B1008160D9
:100E10008093B100EDE6F9E0E491F0E0EE0FFF1F02
:100E2000EC5CF64F859194919093E6058093E505EF
:100E3000EDE0F9E0E491E093E4052BCF109290000F
:100E40001092910080919100886080939100809130
:100E50009100816080939100EDE6F9E0E491F0E08B
:100E6000EE0FFF1FEC5CF64F85919491EDE0F9E0F9
:100E7000E491E093E305C3E00CCF1092A000109240
:100E8000A1008091A10088608093A1008091A100C1
:100E900081608093A100EDE6F9E0E491F0E0EE0FCF
:100EA000FF1FEC5CF64F85919491EDE0F9E0E49141
:100EB000E093E205EECE60E072E18AE790E00E9406
:100EC000D63869017A0181E0C81AD108E108F10831
:100ED000C13079F580918100887F816080938100A5
:100EE000D801AA0FBB1FA50194010E94F53828EE76
:100EF00033E040E050E00E940039C23009F443C0C2
:100F00000CF075C0CC2381F1C13009F0ADCED09288
:100F10008900C09288002093F9053093FA05409328
:100F2000FB055093FC0580916F00826080936F00F9
:100F30009BCEC33039F480919100887F816080938B
:100F40009100CECFC43039F48091A100887F8160B8
:100F50008093A100C5CFC53019F680912101887F0B
:100F6000816080932101BCCFC7BC2093FD053093E5
:100F7000FE054093FF055093000680916E0082604D
:100F800080936E0071CEC092B3002093F50530932C
:100F9000F6054093F7055093F80580917000826044
:100FA0008093700061CED0929900C09298002093F7
:100FB000F1053093F2054093F3055093F4058091C9
:100FC00071008260809371004FCED092A900C092D0
:100FD000A8002093ED053093EE054093EF05509364
:100FE000F005809172008260809372003DCEC43023
:100FF00061F3CCF2C53009F037CED0922901C0920E
:1010000028012093E9053093EA054093EB055093BE
:10101000EC058091730082608093730025CE8091EF
:10102000B100887F892B8093B1005ACF90917B00CB
:10103000977F90937B008653806480937C0080919F
:101040007A00806480937A0080917A0086FDFCCFDC
:10105000809178009091790008953FB7F89480913D
:10106000DD059091DE05A091DF05B091E00526B584
:10107000A89B05C02F3F19F00196A11DB11D3FBFD0
:10108000BA2FA92F982F8827BC01CD01620F711D9F
:10109000811D911D42E0660F771F881F991F4A9599
:1010A000D1F708958F929F92AF92BF92CF92DF9225
:1010B000EF92FF924B015C010E942D086B017C01B5
:1010C0000E942D086C197D098E099F09683E7340A6
:1010D00081059105A8F321E0821A9108A108B108C1
:1010E00088EEC80E83E0D81EE11CF11C8114910427
:1010F000A104B10429F7FF90EF90DF90CF90BF904B
:10110000AF909F908F9008952FB7F8946091D90574
:101110007091DA058091DB059091DC052FBF089571
:101120000F931F93CF93DF93C82FD62F86E0C89FCE
:10113000F0011124E156F94F11A2878D90A1813061
:101140009105F1F058F082309105F1F1039709F41F
:1011500040C0DF91CF911F910F9108956623C9F38D
:1011600061E070E08C2F0E94FE040E94840860936E
:10117000F7067093F8068093F9069093FA06E9CF84
:101180000E9484080091F7061091F8062091F90654
:101190003091FA06AB01BC01401B510B620B730B83
:1011A0008091090790910A07B0E0A0E084179507A5
:1011B000A607B70748F462E070E08C2FDF91CF916B
:1011C0001F910F910C94FE0463E070E0D111C1CF28
:1011D000F4CF70E060E0F1CF862F642F0C94DF0530
:1011E000862F642F0C94B105862F0C94880590915E
:1011F000290289130DC0EDEEF8E0E4919FEF909382
:101200002902E230E1F038F4EE2381F0E13089F098
:1012100060E00C94B105E43049F110F1E530C1F71C
:10122000909173009D7F90937300F2CF10926E00A7
:10123000EFCF90916F009D7F90936F00E9CF9091D9
:1012400070009D7F9093700091E09093B00090911A
:10125000B100987F94609093B1001092B300D8CF02
:10126000909171009D7F90937100D2CF9091720008
:101270009D7F90937200CCCFAF92BF92CF92DF92BE
:10128000EF92FF920F931F93CF93DF936C017B013B
:101290008B01040F151FEB015E01AE18BF08C017CC
:1012A000D10759F06991D601ED91FC910190F0813F
:1012B000E02DC6011995892B79F7C501DF91CF91F2
:1012C0001F910F91FF90EF90DF90CF90BF90AF9064
:1012D0000895FC01538D448D252F30E0842F90E03C
:1012E000821B930B541710F0CF9608950197089521
:1012F000FC01918D828D981761F0A28DAE0FBF2FEA
:10130000B11D5D968C91928D9F5F9F73928F90E03F
:1013100008958FEF9FEF0895FC01918D828D9817AE
:1013200031F0828DE80FF11D858D90E008958FEFEB
:101330009FEF0895FC01918D228D892F90E0805CB4
:101340009F4F821B91098F739927089581E096E042
:101350000E949A0921E0892B09F420E0822F089548
:10136000FC01A48DA80FB92FB11DA35ABF4F2C911A
:10137000848D90E001968F739927848FA689B78911
:101380002C93A089B1898C91837080648C93938D08
:10139000848D981306C00288F389E02D80818F7DAB
:1013A00080830895EF92FF920F931F93CF93DF9363
:1013B000EC0181E0888F9B8D8C8D98131AC0E88991
:1013C000F989808185FF15C09FB7F894EE89FF8960
:1013D0006083E889F98980818370806480839FBFFE
:1013E00081E090E0DF91CF911F910F91FF90EF90FE
:1013F0000895F62E0B8D10E00F5F1F4F0F7311270E
:10140000E02E8C8D8E110CC00FB607FCFACFE88948
:10141000F989808185FFF5CFCE010E94B009F1CF17
:10142000EB8DEC0FFD2FF11DE35AFF4FF0829FB7BC
:10143000F8940B8FEA89FB8980818062CFCF0F936C
:101440001F93CF93DF938C01D0E0C0E0F801EC0F45
:10145000FD1F6491662341F081E096E00E94D2096D
:10146000892B11F02196F2CFCE01DF91CF911F9100
:101470000F910895682F81E096E00C94D209CF93E4
:10148000DF93EC01888D8823B9F0AA89BB89E889AC
:10149000F9898C9185FD03C0808186FD0DC00FB652
:1014A00007FCF7CF8C9185FFF2CF808185FFEDCFD0
:1014B000CE010E94B009E9CFDF91CF91089580E07D
:1014C00090E0892B29F00E94A60981110E9400005A
:1014D00080E090E0892B49F080E090E0892B29F0B2
:1014E0000E94000081110E94000080E090E0892BA2
:1014F00049F080E090E0892B29F00E9400008111E2
:101500000E94000080E090E0892B49F080E090E0AC
:10151000892B29F00E94000081110C94000008958D
:1015200020915705260F3327331F21323105ECF464
:1015300020917B05FC0190E080E0243069F082E09E
:101540000895A09157052191AC01495C5A4FA40F11
:10155000B52FB11D2C930196861798F380915705EE
:10156000680F6093570580E0089581E0089508951D
:101570008FEF9FEF08958FEF9FEF089580913005D3
:1015800090E09195819591090895CF93DF93CB01D8
:10159000EA01642F0E94900ACE01DF91CF91089555
:1015A000CF93DF931F92CDB7DEB7698361E0CE01A1
:1015B00001960E94900A81E090E00F90DF91CF9118
:1015C0000895FC01A5A1B6A18C9192A589238C93C5
:1015D000A5A1B6A18C9191A5892B8C9308950F9309
:1015E0001F93CF93DF93EC018B018DA981110DC067
:1015F0001EBD0DB407FEFDCF0EBD0DB407FEFDCF21
:10160000DF91CF911F910F9108958130E9F480E12E
:10161000E9A1FAA1908117FF14C02DA1922B90830C
:10162000EBA1FCA190812FA1922B9083EBA1FCA1B7
:10163000908128A592239083000F111F815041F7BC
:10164000DFCF2EA19223EBCFEF8DF8A11083CE0137
:101650000E94E10AEF8DF8A10083CE01DF91CF91C6
:101660001F910F910C94E10AFC0185A9811105C01D
:101670006EBD0DB407FEFDCF08958130E1F488E022
:10168000A1A1B2A19C9167FF13C025A1922B9C93AD
:10169000A3A1B4A19C9127A1922B9C93660FA3A117
:1016A000B4A19C9120A592239C93815049F7089561
:1016B00026A19223ECCFA78DB0A16C93CF010C94FF
:1016C000E10ACF93DF93EC01ED8DFE8D80819CA923
:1016D00089238083CE010E94340BED8DFE8D8081A5
:1016E0009BA9892B8083DF91CF910895AF92BF9200
:1016F000CF92DF92EF92FF920F931F93CF93DF93DE
:10170000EC015B016A01215031097901E60EF71EF7
:1017100001501109040F151F8091060290910702D4
:101720008617970739F480910402909105028E156F
:101730009F05A1F06AE2CE010E94610BB501CE01C6
:101740000E94EF0AB701CE010E94EF0AB092070291
:10175000A0920602F0920502E09204028091020239
:10176000909103028C159D0539F4809100029091AF
:10177000010280179107A1F06BE2CE010E94610B7C
:10178000B601CE010E94EF0AB801CE010E94EF0A15
:10179000D0920302C0920202109301020093000251
:1017A0006CE2CE01DF91CF911F910F91FF90EF90EE
:1017B000DF90CF90BF90AF900C94610BFC0185A996
:1017C000811104C091A182A19CBD8DBD08951F937C
:1017D000CF93DF93EC01162FE881F9810284F38522
:1017E000E02D1995112371F06DADCE010E94610BB2
:1017F000E881F9810688F789E02DCE01DF91CF914C
:101800001F9119946EADF1CFAF92BF92CF92DF923C
:10181000EF92FF920F931F93CF93DF93EC0177FD2D
:1018200038C088859985681779079CF557FD31C0C0
:101830008A859B854817590764F569017A015B0120
:10184000E881F9810284F385E02DCE011995E881C4
:10185000F98102A4F3A5E02D01E010E021E030E0E1
:10186000A701B501CE011995B601CE010E94EF0A7C
:10187000E881F9810688F789E02DCE01DF91CF91CB
:101880001F910F91FF90EF90DF90CF90BF90AF909E
:101890001994DF91CF911F910F91FF90EF90DF90FE
:1018A000CF90BF90AF9008958F929F92AF92BF92CA
:1018B000CF92DF92EF92FF920F931F93CF93DF931C
:1018C000EC0149015701E881F98102A4F3A5E02D5B
:1018D00019959401D8010E94343C6B017C01C1141C
:1018E000D104E104F10409F490C08DA9811115C05F
:1018F00081E0C81AD108E108F1088FEFC816D806B0
:10190000E806F80609F481C0BEBC0DB407FEFDCFA1
:10191000AEBC0DB407FEFDCFEBCF813009F045C062
:1019200081E0C81AD108E108F1088FEFC816D8067F
:10193000E806F80609F469C09B2D88E0E9A1FAA140
:10194000208197FF2CC03DA1232B2083EBA1FCA17C
:1019500020813FA1232B2083EBA1FCA1208138A56E
:1019600023232083990F815049F79A2D88E0E9A11C
:10197000FAA1208197FF16C03DA1232B2083EBA164
:10198000FCA120813FA1232B2083EBA1FCA120817E
:1019900038A523232083990F815049F7C1CF3EA159
:1019A0002323D3CF3EA12323E9CFBA1016C0CC0CFA
:1019B000DD1CEE1CFF1CEF8DF8A1B08281E0C81A7F
:1019C000D108E108F1088FEFC816D806E806F80636
:1019D000E1F0CE010E94E10AF1CF81E0C81AD108FE
:1019E000E108F1088FEFC816D806E806F80669F096
:1019F000EF8DF8A1B082CE010E94E10AEF8DF8A12F
:101A0000A082CE010E94E10AE8CFDF91CF911F9121
:101A10000F91FF90EF90DF90CF90BF90AF909F908D
:101A20008F9008958F929F92AF92BF92CF92DF9244
:101A3000EF92FF920F931F93CF93DF934C01EB0133
:101A40006A01590137FF07C0C9010196C80FD91FA4
:101A5000B194A194B108F401A085B185CA17DB0740
:101A60000CF058C017FF07C0C8010196C80ED91E58
:101A7000119501951109F40182859385C816D9063F
:101A80000CF048C0FE01EA0DFB1DAF0141505109A9
:101A900057FD40C0B601600F711F9B0121503109F5
:101AA00037FD38C0D7FF03C05F01D0E0C0E0D7FEEC
:101AB00003C08B01D12CC12C4A175B071CF05D01C0
:101AC000AC1ABD0A281739071CF08C010C191D0926
:101AD000D401ED91FC910284F385E02DC4011995A8
:101AE0009501A601BE01C4010E94540CD401ED91E0
:101AF000FC910688F789E02DC401DF91CF911F91F9
:101B00000F91FF90EF90DF90CF90BF90AF909F909C
:101B10008F901994DF91CF911F910F91FF90EF90CB
:101B2000DF90CF90BF90AF909F908F900895EF92ED
:101B3000FF920F931F932115310529F0011511050F
:101B400011F00E94120D1F910F91FF90EF900895D8
:101B50008F929F92AF92BF92CF92DF92EF92FF92BD
:101B60000F931F93CF93DF935C014B016A01E9014F
:101B700077FD52C0DC0118968D919C91681779070A
:101B80000CF04AC0209709F447C037FF07C0C901CD
:101B90000196C80ED91ED195C195D109F50182854E
:101BA0009385C816D906C4F5A6014C0F5D1F9A018E
:101BB0002150310937FD30C0D7FE03C0EA01D12CD6
:101BC000C12C281739071CF0EC01CC19DD09D5010F
:101BD000ED91FC910284F385E02DC5011995780102
:101BE0008E0121E030E0A601B401C5010E94540C31
:101BF000D501ED91FC910688F789E02DC501DF91B3
:101C0000CF911F910F91FF90EF90DF90CF90BF90F9
:101C1000AF909F908F901994DF91CF911F910F916A
:101C2000FF90EF90DF90CF90BF90AF909F908F90FC
:101C300008958F929F92AF92BF92CF92DF92EF92D0
:101C4000FF920F931F93CF93DF935C016B014A01C7
:101C5000E90157FD52C0DC011A968D919C914817FD
:101C600059070CF04AC0209709F447C037FF07C056
:101C7000C9010196C80ED91ED195C195D109F501AA
:101C800080859185C816D906C4F5A6014C0F5D1F45
:101C90009A012150310937FD30C0D7FE03C0EA0157
:101CA000D12CC12C281739071CF0EC01CC19DD0907
:101CB000D501ED91FC910284F385E02DC5011995C4
:101CC000780101E010E09E01A401B601C5010E9467
:101CD000540CD501ED91FC910688F789E02DC501E2
:101CE000DF91CF911F910F91FF90EF90DF90CF90F8
:101CF000BF90AF909F908F901994DF91CF911F91DB
:101D00000F91FF90EF90DF90CF90BF90AF909F909A
:101D10008F900895EF92FF920F931F93CF93DF93CD
:101D200077FD32C0DC011896ED91FC916E177F07AC
:101D30005CF52115310541F137FF07C0F9013196F6
:101D40004E0F5F1F319521953109DC011A96ED91F7
:101D5000FC914E175F07C4F4EA01C20FD31FDE01E6
:101D60001197B7FD11C057FF03C09E0150E040E03E
:101D7000AE17BF071CF09F01241B350B78018901AA
:101D800021E030E00E94540CDF91CF911F910F9120
:101D9000FF90EF9008952F923F924F925F926F9233
:101DA0007F928F929F92AF92BF92CF92DF92EF92EB
:101DB000FF920F931F93CF93DF93CDB7DEB72C978E
:101DC0000FB6F894DEBF0FBECDBF3C017C836B83A2
:101DD0005C874B871801270181E090E05C01A41A21
:101DE000B50ACA01919581959109AC01440F551F1F
:101DF0005A834983C80101969E838D83F12CE12C7F
:101E000088248394912C922F91709F83227028872D
:101E1000AB014F5F5F4F5A8749878B859C85E816DA
:101E2000F9060CF07AC0CB84DC84B7FC0CC06C01E2
:101E300091E0C91AD10849815A814E5F5F4F5A8398
:101E40004983A40EB51E5FEFE51AF50A82E0880EFD
:101E5000911CA80CB91CCE14DF0464F19F81992356
:101E600099F09601220F331F4D815E81240F351F9B
:101E700082014B815C814C195D09B701660D771DAC
:101E80008EE097E00E948A0E5885552399F09601BE
:101E9000220F331F8D819E81280F391F82014B81B4
:101EA0005C814C195D09B3016E197F098EE097E0E2
:101EB0000E948A0E4B855C854C155D0559F15F814A
:101EC000552391F0940122503109220D331D8201D6
:101ED00049855A854E195F096B857C85660D771D8E
:101EE0008EE097E00E948A0E8885882399F09401FD
:101EF00022503109220D331DB3014B855C85641BD3
:101F0000750B820149855A854E195F098EE097E06D
:101F10000E948A0EDC86CB8680CF2C960FB6F89472
:101F2000DEBF0FBECDBFDF91CF911F910F91FF900C
:101F3000EF90DF90CF90BF90AF909F908F907F9069
:101F40006F905F904F903F902F900895EF92FF9287
:101F50000F931F93CF93DF9357FD31C0DC011A9687
:101F6000ED91FC914E175F0754F52115310539F1BC
:101F700037FF07C0F90131966E0F7F1F319521950C
:101F80003109DC011896ED91FC916E177F07BCF4C6
:101F9000EB01C20FD31FDE011197B7FD10C077FF11
:101FA00003C09E0170E060E0AE17BF071CF09F0108
:101FB000261B370B780101E010E00E94540CDF91E2
:101FC000CF911F910F91FF90EF9008958F929F9264
:101FD000AF92BF92CF92DF92EF92FF920F931F9337
:101FE000CF93DF9347012115310509F44BC001154B
:101FF000110509F447C037FF07C0F90131966E0F8C
:102000007F1F319521953109DC011896AD90BC9068
:102010006A157B05BCF517FF07C0F80131964E0F16
:102020005F1F119501951109DC011A96ED91FC9144
:102030004E175F073CF56B01C20ED31EE6012197D8
:10204000D7FD20C07A01E00EF11ED7011197B7FD30
:1020500019C077FF03C0960170E060E057FF03C02E
:10206000870150E040E0CA15DB051CF09501261BF6
:10207000370BAE17BF071CF08F01041B150B740143
:102080000E94540CDF91CF911F910F91FF90EF9020
:10209000DF90CF90BF90AF909F908F900895EF9278
:1020A000FF920F931F93CF93DF93EC0177FD22C034
:1020B0008885998568177907ECF457FD1BC08A85D8
:1020C0009B8548175907B4F47901E881F98102A486
:1020D000F3A5E02D01E010E021E030E0CE011995FC
:1020E000B701CE01DF91CF911F910F91FF90EF903B
:1020F0000C94EF0ADF91CF911F910F91FF90EF9019
:102100000895CF93DF93EC010E94DE0B8FA987FD2A
:1021100006C0EB8DFC8D80819AA989238083DF9195
:10212000CF9108950895AF92BF92CF92DF92EF9230
:10213000FF920F931F93CF93DF93EC01E62E8A015A
:10214000A22E0E94DE0B8FA987FD06C0EB8DFC8DB1
:1021500080819AA989238083ED8DFE8D80819CA941
:10216000892380836E2DCE010E94340BED8DFE8D70
:1021700080819BA9892B8083D12CC12CB12CCA14BE
:10218000DB04E4F48DA97801823079F488A98823EE
:1021900061F0F801619171917F01CE010E94EF0A17
:1021A000FFEFCF1ADF0A8701EACFFFEFEF1AFF0A2E
:1021B000F8016491CE010E94340BF2CF8FA987FD04
:1021C00006C0EB8DFC8D808199A9892B8083DF91DE
:1021D000CF911F910F91FF90EF90DF90CF90BF9024
:1021E000AF900895611106C060E220E050E040E049
:1021F0000C94931061E2F9CF0F931F93CF93DF9369
:102200001F92CDB7DEB78C016370DC0156966C93DC
:102210005697623009F468C0633009F46AC06130CF
:1022200009F456C088E4898380EF90E019969C9366
:102230008E93189780E491E01B969C938E931A9747
:10224000C8010E94DE0BD801D7968C91D79787FDE5
:1022500009C05B96ED91FC915C978081D2969C9130
:1022600089238083D8015D96ED91FC915E978081F2
:10227000D4969C918923808366E3C8010E94340B25
:10228000D8015D96ED91FC915E978081D3969C91EB
:10229000D397892B8083D5968C91823061F16981A7
:1022A000C8010E94340BD801D7968C91D79787FD2F
:1022B00009C05B96ED91FC915C978081D1969C91D1
:1022C000892B80830F90DF91CF911F910F910895FB
:1022D00088E2898380E491E0F8019187808780EF2C
:1022E00090E093878287ACCF88E8898380EF90E085
:1022F0009DCF88EEEECFF80180A9882381F2698115
:102300007A81C8010E94EF0ACECFFC0187A987FD20
:1023100006C0A38DB48D9C9181A9892B8C930895BF
:10232000AF92BF92CF92DF92EF92FF920F931F93E3
:10233000CF93DF936C015B01EA0179018EE097E0B6
:102340000E9481109E01220F331F2F5F3F4FA50176
:102350004C1B5D0B8701B6018EE097E00E948A0E50
:1023600010E000E023E0AE01B501C6010E94CB0EF3
:102370008EE097E0DF91CF911F910F91FF90EF904A
:10238000DF90CF90BF90AF900C9485110895FC0121
:102390006370668B8481958126813781613039F045
:1023A000633029F0918780873387228708953187AA
:1023B00020879387828708952F923F924F925F9252
:1023C0006F927F928F929F92AF92BF92CF92DF9245
:1023D000EF92FF920F931F93CF93DF93CDB7DEB7AA
:1023E0006A970FB6F894DEBF0FBECDBF9A8F898F64
:1023F0007A8369834A01D22E18870F833701BC2C58
:10240000DC0159962D913C915A972115310509F01F
:1024100015C118968D919C911997681779070CF042
:10242000D7C11A968D919C91481759070CF0D0C1CD
:102430004C2C512CB6E0CB9E600D711D11247C8775
:102440006B87161617060CF0C3C1EA2DF0E0FA8769
:10245000E98793E0EE0FFF1F9A95E1F7F88BEF877E
:10246000CF01840F951F181619060CF0B1C1A98D64
:10247000BA8D58968C91811104C0BFEABD1508F43D
:10248000D394A98DBA8DED91FC9111970284F385B7
:10249000E02DCD011995B5E0DB9EC0011124E98145
:1024A000FA81FC83EB83312C212C9C0120543D4F7D
:1024B000388F2F8B4A2D50E05E8B4D8BEF89F88D36
:1024C000E20DF31D44919E828D82D12CC12C698135
:1024D0007A81620D731D7A8B698B842F90E09C8BBF
:1024E0008B8BE98DFA8DA081B18140FF82C0F1E034
:1024F000BF126FC0AF126DC01C96ED91FC912F8181
:102500003885A4014C0D5D1D69897A89898D9A8D64
:102510001995EB89FC89F595E7954E2F5FEFC51A64
:10252000D50A6D817E818D899E89680F791F7E8392
:102530006D8398E0C916D10481F6AFEF2A1A3A0AE2
:10254000EB81FC81E40DF51DFC83EB83F5E02F1698
:10255000310409F0B3CF2F81388526153705B9F03E
:10256000A98DBA8DED91FC91B1E0BB1257C0AB12B1
:1025700055C069817A816B5F7F4F0088F189E02DBA
:10258000830128E030E0A401898D9A8D1995A98DE9
:10259000BA8DED91FC9111970688F789E02DCD0158
:1025A0006A960FB6F894DEBF0FBECDBFDF91CF9114
:1025B0001F910F91FF90EF90DF90CF90BF90AF9061
:1025C0009F908F907F906F905F904F903F902F9053
:1025D00019941E96ED91FC91EF80F88409851A8577
:1025E00092014D815E816B817C81898D9A8D1995D7
:1025F00090CF2F8138852615370509F48ACF31E031
:10260000B31207C0A31205C01C96ED91FC91930173
:1026100078CF1E96ED91FC917301E0CF6B857C85A0
:10262000641975090684F785E02D73010F851889F3
:102630009201A401898D9A8D1995A9CFF90134963B
:102640009491329745915491D91AB7E0DB9E400D91
:10265000511D1124F901259134913C8B2B8BFA01EA
:1026600025903490FA013296749031963491398BDA
:10267000329664903196449041E04C1518F04A151A
:1026800008F07FC0662D062C000C770B7C836B83D3
:10269000842D042C000C990B9E838D83A98DBA8DFB
:1026A000ED91FC9111970284F385E02DCD011995F0
:1026B000512CD12CC12CEA2DF0E0FA87E9872B2D83
:1026C00030E03C872B87A401440D511D47FC5A95EF
:1026D000588F4F8B69817A81660D711D67FC7A95E1
:1026E0007E876D877989C71608F051CF2C2D30E091
:1026F0004D815E81420F531FA985BA854A9FC00153
:102700004B9F900D5A9F900D1124FC01E80DF91D6F
:10271000F88BEF87852D612C4F89588D420F531F01
:102720005E8B4D8B671408F050C044244394480ED0
:10273000877041F4C1010196EB89FC89E20DF31D1C
:10274000D4901C01D7FE19C0A98DBA8DED91FC91D2
:10275000662D70E0B1E0BB1219C0AB1217C02D8519
:102760003E85620F731F0484F585E02D2F81388527
:102770004D895E89898D9A8D1995DD0C6394842D20
:10278000D1CF1E821D821C821B8288CF4B815C812F
:10279000640F751FAB85BC856A9FC0016B9F900D50
:1027A0007A9F900D112469817A81680F791F0684C0
:1027B000F785E02DEF80F88409851A859D014F8506
:1027C0005889898D9A8D1995D8CF570CC3948ACF83
:1027D0006A960FB6F894DEBF0FBECDBFDF91CF91E2
:1027E0001F910F91FF90EF90DF90CF90BF90AF902F
:1027F0009F908F907F906F905F904F903F902F9021
:1028000008958F929F92AF92CF92EF92FF920F9383
:102810001F93CF93DF93EC01262F898D9A8D00971C
:1028200009F051C06A30D1F41D861C868D8948E0BC
:10283000849F900111248E859F85820F931F9F870F
:102840008E8781E090E0DF91CF911F910F91FF90F3
:10285000EF90CF90AF909F908F9008956D3089F357
:10286000CC88AD888F898823C1F08C859D8536E022
:10287000C39E800D911D112448855985481759071D
:1028800064F44E855F851D861C8638E0A39EC001DA
:102890001124840F951F9F878E87EA88FB880889FB
:1028A00019894E855F856C857D85CE010E94DC117E
:1028B0002C898C859D8546E0249F800D911D1124D7
:1028C0009D878C87BECF6A3069F41D861C86FC010B
:1028D0003896E4912D898E859F85E29F800D911D0C
:1028E0001124ADCF6D3009F4ACCFFC013496349196
:1028F000631708F4A6CF3296E491E61708F4A1CF47
:10290000FC01329685909490462F431B342F47E06C
:10291000349F800C911C1124F4013296349131962D
:10292000E4913323A9F1EE2399F1CC88F401359693
:10293000E491AD884F89442301F10E2E000CFF0B6A
:10294000E30FF11DCE9EA001CF9E500D11246C858A
:102950007D85460F571F68857985641775076CF468
:102960004E855F851D861C86FC013896E491AE9EDF
:10297000400D511D11245F874E87EA88FB88088926
:1029800019894E855F856C857D85CE010E94DC119D
:10299000F4013496E4912C898C859D85E29F800D0D
:1029A000911D11248DCF6F927F928F929F92AF9243
:1029B000BF92CF92DF92EF92FF920F931F93CF932C
:1029C000DF93EC016B015A0139014801E881F9817B
:1029D0000284F385E02D1995E881F9810288F38955
:1029E000E02D87019301A501B601CE011995A5013E
:1029F000480D591D41505109E881F9810288F38938
:102A0000E02D9301B601CE011995E881F981008886
:102A1000F189E02D9401A501B601CE011995C60CEE
:102A2000D71CB60161507109E881F9810088F189EC
:102A3000E02D9401A501CE011995E881F981068860
:102A4000F789E02DCE01DF91CF911F910F91FF907B
:102A5000EF90DF90CF90BF90AF909F908F907F903E
:102A60006F9019946F927F928F929F92AF92BF92C4
:102A7000CF92DF92EF92FF920F931F93CF93DF934A
:102A80005C01EB016A01490138018701DC01ED912C
:102A9000FC916217730719F5641675062CF0962DD4
:102AA000872D3A01C92ED82E9601261937092F5F96
:102AB0003F4F048CF58DE02DA301BE01C501199592
:102AC000DF91CF911F910F91FF90EF90DF90CF900A
:102AD000BF90AF909F908F907F906F900895461514
:102AE000570591F42617370724F0892D4B01C22F83
:102AF000D82F9E01281939092F5F3F4F068CF78D7B
:102B0000E02DA601B401DACF0284F385E02D1995FA
:102B1000D501ED91FC910488F589E02D83019401A4
:102B2000A601BE01C5011995D501ED91FC9106885C
:102B3000F789E02DC501DF91CF911F910F91FF9093
:102B4000EF90DF90CF90BF90AF909F908F907F904D
:102B50006F901994EF92FF920F931F93DC011A96D6
:102B60000D911C911B9718962D913C911997ED9101
:102B7000FC9100A0F1A1E02D7B0150E040E070E06D
:102B800060E019951F910F91FF90EF9008954F927B
:102B90005F926F927F928F929F92AF92BF92CF92ED
:102BA000DF92EF92FF920F931F93CF93DF936C010D
:102BB0002B015A0139014801DC01ED91FC9102849D
:102BC000F385E02D1995E201640C751CD601ED9199
:102BD000FC91C615D7055CF40088F189E02D8701CA
:102BE0009401A501BE01C60119952196EFCF068873
:102BF000F789E02DC601DF91CF911F910F91FF90D2
:102C0000EF90DF90CF90BF90AF909F908F907F908C
:102C10006F905F904F9019948F929F92AF92BF9256
:102C2000CF92DF92EF92FF920F931F93CF93DF9398
:102C3000EC015B014A016901E881F9810284F385B5
:102C4000E02D199595012C0D3D1D21503109E8818C
:102C5000F9810488F589E02D78018401A401B5018A
:102C6000CE011995E881F9810688F789E02DCE011A
:102C7000DF91CF911F910F91FF90EF90DF90CF9058
:102C8000BF90AF909F908F9019948F929F92AF9228
:102C9000BF92CF92DF92EF92FF920F931F93CF9349
:102CA000DF93EC015B014A0169017801E881F98158
:102CB0000284F385E02D1995C80CD91C86010150BA
:102CC0001109E881F9810488F589E02D9501A401B5
:102CD000B501CE011995E881F9810688F789E02DC3
:102CE000CE01DF91CF911F910F91FF90EF90DF9078
:102CF000CF90BF90AF909F908F901994EF92FF92DA
:102D00000F931F93DC01ED91FC9100A0F1A1E02D48
:102D100019951F910F91FF90EF9008950F931F93B6
:102D2000DC01ED91FC91068CF78DE02D19951F913A
:102D30000F9108950F931F93DC01ED91FC91048C8A
:102D4000F58DE02D19951F910F910895DC01ED91FE
:102D5000FC910084F185E02D19942F923F924F92BF
:102D60005F926F927F928F929F92AF92BF92CF921B
:102D7000DF92EF92FF920F931F93CF93DF9300D0D8
:102D800000D0CDB7DEB73C016A013E832D83FC82C3
:102D9000EB825801A41AB50AB7FE03C0B194A194FE
:102DA000B1088D809E80861A970A97FE03C0919481
:102DB000819491088A149B045CF0902F812F0D81DF
:102DC0001E819D838E839C2D8D2D6B01692F782F05
:102DD0000C151D055CF09D818E817E836D83692FAE
:102DE000782F902F812F8601C92ED82E1601201AF8
:102DF000310A2B012D813E81421A530A57FE03C02E
:102E0000519441945108710137FE03C03FEFE31A1A
:102E1000F30AF594E7948D819E81861797075CF5F8
:102E2000A1E0B0E0BA83A983C016D1064CF1D3016A
:102E3000ED91FC910484F585E02D2B813C81A80166
:102E40006D817E818A149B041CF04D815E81B801E6
:102E5000C3011995E418F508F7FE0AC02D813E81DB
:102E600089819A81280F391F3E832D83E20CF31C40
:102E70000F5F1F4FD9CF2FEF3FEF3A832983D4CF76
:102E800026960FB6F894DEBF0FBECDBFDF91CF916F
:102E90001F910F91FF90EF90DF90CF90BF90AF9078
:102EA0009F908F907F906F905F904F903F902F906A
:102EB0000895089590E080E008952F923F924F92F8
:102EC0005F926F927F928F929F92AF92BF92CF92BA
:102ED000DF92EF92FF920F931F93CF93DF9300D077
:102EE0001F92CDB7DEB71C012B015A0169014801C1
:102EF000421753070CF069C05A83498357FF05C036
:102F00009A012F5F3F4F3A83298389819A81959552
:102F100087959C838B83049724F024E030E03C83E6
:102F20002B838EE097E00E9481106B807C80660C82
:102F3000771C2B813C81220D331D3A832983950117
:102F40002619370974018601A20169817A818EE010
:102F500097E00E94E60FC618D70831E0C31AD108DF
:102F60008B819C81480E591EA20CB31CC5012B817C
:102F70003C81821B930B860121E04B815C81B20175
:102F800001970E94CB0E22E04B815C81B2018981C6
:102F90009A810E94CB0E8EE097E00F900F900F90D9
:102FA0000F90DF91CF911F910F91FF90EF90DF90E5
:102FB000CF90BF90AF909F908F907F906F905F90D9
:102FC0004F903F902F900C94851184E090E09C836B
:102FD0008B83A7CFFB0101900020E9F73197AF0168
:102FE000461B570BDC01ED91FC910280F381E02D33
:102FF00019948F929F92AF92BF920F931F93CF938A
:10300000DF93CDB7DEB7A1970FB6F894DEBF0FBE42
:10301000CDBF19A2423008F44AE08E010F5D1F4F68
:10302000842E912CB12CA12CA50194010E94003971
:10303000E62FB901CA01EA3004F5E05DD801EE934C
:103040008D01232B242B252B79F790E080E010971E
:1030500029F0BD0181E096E00E94EA17A1960FB623
:10306000F894DEBF0FBECDBFDF91CF911F910F91BE
:10307000BF90AF909F908F900895E95CDFCF0C9444
:10308000EA17209322072093230750931F074093AA
:103090001E071092210710922007FC0101900020CA
:1030A000E9F73197E81BF90B46E0429FD001439FB7
:1030B000B00D1124AE9FA001AF9F500DBE9F500DCB
:1030C000112420EF30E0241B350B37FF02C02F5FA7
:1030D0003F4F3595279530931B0720931A07709320
:1030E0001D0760931C07BC018EE097E00C943F180D
:1030F0002093220720932307509321074093200712
:1031000050931F0740931E07FC0101900020E9F730
:103110003197E81BF90B46E0429FD001439FB00D69
:103120001124AE9FA001AF9F500DBE9F500D1124E2
:1031300020EF30E0241B350B37FF02C02F5F3F4FDD
:103140003595279530931B0720931A0770931D0719
:1031500060931C07BC018EE097E00C943F188F929F
:103160009F92AF92BF92CF92DF92EF92FF92CF9356
:10317000DF936B017C01AC019B010E94773B69E806
:1031800072E0811126C046015701E894B7F82FEF8D
:103190003FEF4FE75FE7C501B4010E94773B811124
:1031A0000CC02FEF3FEF4FE75FE7C501B4010E946E
:1031B0009E396DE872E0181664F02FEF3FEF4FE78D
:1031C0005FE4C701B6010E94FD3A181684F461E974
:1031D00072E081E096E0DF91CF91FF90EF90DF9079
:1031E000CF90BF90AF909F908F900C94EA172FEFE5
:1031F0003FEF4FE75FECC701B6010E949E3987FDA4
:10320000E6CF20E030E0A901C701B6010E949E3957
:10321000D0E0C0E087FF08C08DE20E943A0AEC01CE
:10322000F7FAF094F7F8F0942DEC3CEC4CE45DE305
:10323000C701B6010E9432394B015C010E941C3A61
:103240006B017C010E944B3A9B01AC01C501B401AA
:103250000E9431394B015C014AE0C701B6010E946E
:10326000F917C80FD91F8EE20E943A0AC80FD91F5A
:1032700020E030E040E251E4C501B4010E94023B8D
:103280000E941C3A90E080E04AE00E94F9178C0FFF
:103290009D1FDF91CF91FF90EF90DF90CF90BF9077
:1032A000AF909F908F900895EF92FF920F931F938E
:1032B000CF93DF9300D000D000D01F92CDB7DEB700
:1032C00088E0E82E82E4F82E0CE110E020EF30E0F8
:1032D00050E040E070E060E08EE097E00E94120D68
:1032E00021E030E04FEF5FEF6AE070E085E992E0C7
:1032F0000E947818F12CE12C02E810E028EC30E074
:1033000048E250E064E170E08EE097E00E94120D28
:103310008091CA05882309F453C023E030E040EED1
:103320005FEF62E370E082EA92E00E94411821E0E0
:1033300030E04FEF5FEF64E670E08FEA92E00E94CA
:10334000411800EE17E02CE130E040EA50E062E87E
:1033500070E088E290E00E945D1721E030E04FEFDE
:103360005FEF6AE870E081EC92E00E94781880914B
:10337000B8052091B6053091B705811104C02091A0
:103380001F02309120023093160220931502809381
:10339000AC058091CA058093AB058FEF9FEF9093AA
:1033A0001402809313022A960FB6F894DEBF0FBE64
:1033B000CDBFDF91CF911F910F91FF90EF900895B6
:1033C0008091B8058E010F5F1F4F882309F47AC0E2
:1033D0008091B6059091B7056CE370E00E94043CC3
:1033E0009F938F937F936F9389E093E09F938F9345
:1033F0001F930F930E94483C84E0809322078093A0
:10340000230780EE97E090931F0780931E0710928A
:103410002107109220078DE190E090931B07809385
:103420001A0782E390E090931D0780931C07B80170
:103430008EE097E00E943F1822E030E040EE57E037
:1034400064E670E088ED92E00E94411840911F020E
:10345000509120028091B6059091B7050FB6F8946F
:10346000DEBF0FBECDBFF12CE12C1416150674F48F
:10347000DA01A81BB90B28EC30E00E943C3C9A0111
:10348000550F440B550B0E94D638790108E012E421
:103490002EE030E048EC50E061E970E084E190E03B
:1034A0000E945D171E141F040CF061CF00EE17E0A0
:1034B0002EE030E0A70161E970E084E190E00E9435
:1034C0005D1755CF80911F02909120026CE370E050
:1034D0000E94043C9F938F937F936F9389E093E0C6
:1034E0009F938F931F930F930E94483C84E0809397
:1034F0002207809323078FEF97E090931F07809315
:103500001E0710922107109220078DE190E0909302
:103510001B0780931A0782E390E090931D07809326
:103520001C07B8018EE097E00E943F1821E030E0D0
:1035300048E156EC6EE670E085EE92E00E9441189C
:103540000FB6F894DEBF0FBECDBF11CFAF92BF92C2
:10355000CF92DF92EF92FF920F931F93CF93DF935F
:1035600000D000D000D0CDB7DEB788E0E82E82E4EE
:10357000F82E0CE110E020EF30E050E040E070E089
:1035800060E08EE097E00E94120D21E030E04FEF06
:103590005FEF6AE070E08EEF92E00E947818809111
:1035A000B0051F928F938091B1051F928F938091E8
:1035B0001D021F928F9384E093E09F938F93CE011F
:1035C00001965C019F938F930E94483C9EE0C92E18
:1035D00097E0D92E84E0F601848B858B8FEF9FEFE7
:1035E000938B828B918B808BF12CE12C00E210E08D
:1035F00020EC30E04DE250E068E170E0C6010E944E
:10360000120D88E190E0F601958784878DE290E0C5
:1036100097878687B501C6010E943F18EE24EA9479
:1036200027E0F22E02E010E024EB30E049E650E023
:103630006EE170E0C6010E94120D24EB30E04BE910
:1036400050E06EE170E0C6010E94120D80911D02F3
:10365000809312028091B105809311028091B00590
:1036600080931002809581708093AA050FB6F8941C
:10367000DEBF0FBECDBF29960FB6F894DEBF0FBEDA
:10368000CDBFDF91CF911F910F91FF90EF90DF9011
:10369000CF90BF90AF900895AF92BF92CF92DF923C
:1036A000EF92FF920F931F93CF93DF93CDB7DEB7C7
:1036B00060970FB6F894DEBF0FBECDBF8091CC05EA
:1036C00081113EC281E198E07C010CE110E020EF25
:1036D00030E050E040E070E060E08EE097E00E9473
:1036E000120D8091CC0581112EC28DE993E021E06D
:1036F00030E04FEF5FEF6AE070E00E947818609171
:10370000CE057091CF058091D0059091D1059E0195
:103710002F5F3F4F6901890121E044E00E94673635
:10372000F60101900020E9F73197EC19FD0988E1D5
:103730008E9F90018F9F300D1124205D3F4F60EFD1
:1037400070E0621B730B77FF02C06F5F7F4F5B01FE
:10375000B594A794265F3F4FF12CE12C03E210E0D3
:103760004DE250E0B5018EE097E00E94970D84E0B5
:1037700080932207809323078091CB058111E6C1B6
:1037800080EE97E0909321078093200790931F0786
:1037900080931E0735E0A30EB11CB0921B07A092C8
:1037A0001A0782E390E090931D0780931C0767E45B
:1037B00073E08EE097E00E943F18B6018EE097E03C
:1037C0000E943F186AE473E08EE097E00E943F1881
:1037D0008091CB0508E012E4882311F000E018EF97
:1037E00028E130E040E550E064E670E08EE190E0F2
:1037F0000E945D1781E080932207809323078FEF5B
:103800009FEF909321078093200790931F07809349
:103810001E0788E290E090931B0780931A078CE6BE
:1038200090E090931D0780931C076CE473E08EE09A
:1038300097E00E943F188091CB0569EB73E08823E5
:1038400011F060EB73E08EE097E00E943F188091EA
:10385000CC0500EE17E0882311F00FE110E028E11D
:1038600030E040E550E064E670E082E890E00E94DD
:103870005D1781E080932207809323078FEF9FEFEE
:10388000909321078093200790931F0780931E0732
:103890008CE890E090931B0780931A078CE690E0E9
:1038A00090931D0780931C078091CC056AE273E01A
:1038B000882311F063E273E08EE097E00E943F18E6
:1038C0006091210270912202809123029091240242
:1038D0008E01075F1F4F21E044E00E946736F12C04
:1038E000E12C04E110E028E730E047E850E064E133
:1038F00070E08EE097E00E94120D82E08093220734
:10390000809323078FEF97E0909321078093200700
:1039100090931F0780931E0784E190E090931B070C
:1039200080931A0789E890E090931D0780931C0705
:1039300063E573E08EE097E00E943F18BE01675F89
:103940007F4F8EE097E00E943F186AE473E08EE0BC
:1039500097E00E943F180EE010E024E630E045EAD0
:1039600050E064E170E08EE097E00E94120D81E08B
:1039700080932207809323072091CB0580EE97E068
:10398000222311F080E098EF909321078093200785
:1039900090931F0780931E0784E190E090931B078C
:1039A00080931A0787EA90E090931D0780931C0785
:1039B0006DE373E0222311F061E373E08EE097E0A2
:1039C0000E943F188091CC0508E012E4882311F092
:1039D0000FE110E022E130E040E550E06AED70E0F8
:1039E00090E080E00E945D1781E080932207809341
:1039F00023078FEF9FEF90932107809320079093E9
:103A00001F0780931E078AE090E090931B07809326
:103A10001A0780EE90E090931D0780931C0767E5DE
:103A200073E08EE097E00E943F188091CB0508E09C
:103A300012E4882311F000E018EF22E130E040E5C5
:103A400050E06AED70E080E590E00E945D178AE545
:103A500090E090931B0780931A0780EE90E090937C
:103A60001D0780931C076EE573E08EE097E00E94CF
:103A70003F188091CD0508E012E4882311F000E2A0
:103A80001DEF22E130E040E550E06AED70E080EAB1
:103A900090E00E945D178AEA90E090931B07809364
:103AA0001A0780EE90E090931D0780931C0763E651
:103AB00073E08EE097E00E943F188091CE059091D0
:103AC000CF05A091D005B091D10580930C029093C1
:103AD0000D02A0930E02B0930F02809121029091EB
:103AE0002202A0912302B0912402809308029093B5
:103AF0000902A0930A02B0930B028091CB05809338
:103B0000AE058091CC058093AF058091CD05809363
:103B1000AD058FEF9FEF9093140280931302609690
:103B20000FB6F894DEBF0FBECDBFDF91CF911F91CE
:103B30000F91FF90EF90DF90CF90BF90AF900895DE
:103B40008FE190E0C1CD83E193E0D1CD80E098EFAB
:103B500019CE0E94433CCF92DF92EF92FF920F93D7
:103B60001F93CF93DF93EC016A017B01C114D10451
:103B7000E104F10431F4C12C42E1D42E4AE7E42EF1
:103B8000F12C8FA987FD07C061E00E94DF0561E08D
:103B90008FA90E94B10561E088AD0E94DF0561E058
:103BA00088AD0E94B1058DA98111A3C040E052E10A
:103BB0006AE770E0C416D506E606F70640F4769587
:103BC0006795579547958F5F8630A1F787E0982FC7
:103BD000906A969599A3809581708AA31BA21CA2D6
:103BE0001DA21EA21FB7F8948091A105811127C0C4
:103BF000E3E8F9E08491E3E2F9E09491E82FF0E062
:103C0000EE0FFF1FED58F74FA591B491EC91E9230A
:103C100021F461E085E30E94B10561E085E30E9443
:103C2000DF058CB580618CBD8CB580648CBD61E096
:103C300084E30E94DF0561E083E30E94DF05809159
:103C4000A1058F5F8093A1051FBF8EA987FD21C0AD
:103C500061E00E94DF0561E08EA90E94B10564E683
:103C600070E080E090E00E94520860E08EA90E941F
:103C7000B10564E670E080E090E00E94520861E0E7
:103C80008EA90E94B10568EC70E080E090E00E948F
:103C900052088EA987FF0DC020E050E040E061E0AF
:103CA000CE010E94931066E970E080E090E00E94EF
:103CB000520800EC17E0C8010196F80164916623F0
:103CC00009F463C00E5F1F4FFC01F490EF2CE894E1
:103CD000E7F82E2DA801CE010E9493100E0D111DA4
:103CE000F7FEE9CF66E970E080E090E00E945208BC
:103CF000E2CF0EE419E0F12C8130B9F461E08AA53D
:103D00000E94DF0560E08AA50E94B10561E08CA5F4
:103D10000E94DF0560E08CA50E94B1058BA587FDA0
:103D200094CF60E00E94DF0590CFF8018491E82FE6
:103D3000F0E0EE0FFF1FEC5CF64F859194912F8D14
:103D400038A12817390741F461E08F2D0E94DF0563
:103D500060E08F2D0E94B105F3940F5F1F4FF6E4D2
:103D6000FF12E3CF61E08EA50E94DF0561E08EA522
:103D70000E94B1058FA587FD68CF61E00E94DF0535
:103D800061E08FA50E94B10560CF80EF90E0998738
:103D9000888780E491E09B878A87DF91CF911F918C
:103DA0000F91FF90EF90DF90CF9008951F93CF93E6
:103DB000DF9385ED8093BC008091330590913405AD
:103DC000A0913505B09136050796A11DB11D23E0E0
:103DD000B695A795979587952A95D1F72091BC0020
:103DE00024FD03C010927B0552C0409133055091D1
:103DF00034056091350570913605452B462B472BD0
:103E000069F30097A105B10541F02AE22A95F1F77F
:103E100000C00197A109B109E1CF80913205C1E04D
:103E2000C0933105882399F1D091B8001091BA0060
:103E30008091BC008A7B8093BC0060E084E10E949A
:103E4000B10560E085E10E94B10510927B05C09349
:103E50007D0510927C0561E084E10E94B10561E07E
:103E600085E10E94B1058091B9008E7F8093B900F1
:103E70008091B9008D7F8093B90088E48093B80069
:103E800085E48093BC001093BA00D093B800DF9112
:103E9000CF911F9108952F923F924F925F926F9210
:103EA0007F928F929F92AF92BF92CF92DF92EF92CA
:103EB000FF920F931F93CF93DF9300D01F92CDB744
:103EC000DEB75CE9E52E5DE5F52E04EB10E020EFB2
:103ED00030E050E040E070E060E08EE097E00E946B
:103EE000120D20EE3FEF4CE150E068E270E082ED11
:103EF00090E00E94901120E63EEF44E150E068E23D
:103F000070E082ED90E00E9490112FEF3FEF4EE0C5
:103F100050E063E270E082E390E00E9490112FEFA6
:103F20003FEF42E150E06EE170E086E490E00E94F5
:103F300090112FEF3FEF4EE050E063E270E08AE532
:103F400090E00E9490112FEF3FEF4AE050E067E3CE
:103F500070E080EA90E00E9490112FEF3FEF4EE07A
:103F600050E062E370E08FEA90E00E9490112FEF42
:103F70003FEF4AE050E067E370E08EEB90E00E9494
:103F800090111A82198229813A81B901330F880B65
:103F9000990B0E944D3A6B017C012DEC3CEC4CECF2
:103FA0005CE30E94023B0E946F3B2B013C012FE827
:103FB00032EC45E75DE3C701B6010E94023B0E9477
:103FC0006F3B4B015C0120E030E040E751E4C3016E
:103FD000B2010E94023B0E94153A7B013BE9E30ECD
:103FE000F11C20E030E040E051E4C501B4010E9442
:103FF000023B0E94153AA701460F571F00EE19E336
:1040000029E130E069817A818EE097E00E94A80D75
:1040100089819A8101969A838983803F910509F06D
:10402000B2CF80E6E82E84E5F82E05E010E020EF20
:1040300030E04FEA50E070E060E08EE097E00E94F0
:10404000120D9DE8E92E9BE6F92E0CE810E020EF1A
:1040500030E044EB50E070E060E08EE097E00E94DA
:10406000120D20EBE22E26EDF22E03E010E020EF01
:1040700030E046EE50E070E060E08EE097E00E94B5
:10408000120D20EF30E04EE051E070E060E08EE095
:1040900097E00E94120D34E0232E312C4DE0442E87
:1040A000512C612C712C8EE097E00E948110C12C64
:1040B000D12C7601812C912C540122EA30E03A83F4
:1040C0002983C501B401A30192010E94D638C10120
:1040D000820F931F9C838B83C701B601A3019201BA
:1040E0000E94D638220D331D94E0891A9108A10848
:1040F000B10884E0C80ED11CE11CF11C8B819C81AD
:104100002817390734F49B818C813C832B83292F1A
:10411000382F8B819C81281B390B2F5F3F4F00EE7E
:1041200017E049815A81BC018EE097E00E94A60FFA
:1041300029813A812F5F3F4F3A832983203B310504
:1041400009F0BFCF8EE097E00E9485113CE0230E7E
:10415000311C84EF2816310409F0A5CF0F900F9081
:104160000F900F90DF91CF911F910F91FF90EF90E3
:10417000DF90CF90BF90AF909F908F907F906F9087
:104180005F904F903F902F9008951F920F920FB61F
:104190000F9211242F933F938F939F93AF93BF93CD
:1041A0008091D9059091DA05A091DB05B091DC05ED
:1041B0003091D80523E0230F2D3758F50196A11D26
:1041C000B11D2093D8058093D9059093DA05A0936B
:1041D000DB05B093DC058091DD059091DE05A091B3
:1041E000DF05B091E0050196A11DB11D8093DD05AD
:1041F0009093DE05A093DF05B093E005BF91AF91EA
:104200009F918F913F912F910F900FBE0F901F9014
:10421000189526E8230F0296A11DB11DD2CF1F923B
:104220000F920FB60F9211240BB60F922F933F935C
:104230004F935F936F937F938F939F93AF93BF93AE
:10424000EF93FF938091F5059091F605A091F70506
:10425000B091F805892B8A2B8B2BE1F19091E40525
:10426000E091E505F091E6058081892780838091C2
:10427000F5059091F605A091F705B091F80518168F
:1042800019061A061B069CF48091F5059091F60517
:10429000A091F705B091F8050197A109B1098093A4
:1042A000F5059093F605A093F705B093F805FF91F7
:1042B000EF91BF91AF919F918F917F916F915F919E
:1042C0004F913F912F910F900BBE0F900FBE0F900B
:1042D0001F901895809129020E94F708E8CF1F923D
:1042E0000F920FB60F9211240BB60F922F933F939C
:1042F0004F935F936F937F938F939F93AF93BF93EE
:10430000EF93FF9381E096E00E94B009FF91EF9157
:10431000BF91AF919F918F917F916F915F914F91DD
:104320003F912F910F900BBE0F900FBE0F901F90DB
:1043300018951F920F920FB60F9211240BB60F9281
:104340002F938F939F93EF93FF93E0911106F0913A
:1043500012068081E0911706F091180682FD1DC0BB
:10436000908180911A068F5F8F7320911B068217B0
:1043700041F0E0911A06F0E0EF5FF94F958F8093DE
:104380001A06FF91EF919F918F912F910F900BBE85
:104390000F900FBE0F901F9018958081F2CF1F9243
:1043A0000F920FB60F9211240BB60F922F933F93DB
:1043B0004F935F936F937F938F939F93AF93BF932D
:1043C000EF93FF938091B900887F803609F44DC048
:1043D00008F040C0883209F4A7C028F5803109F4FC
:1043E0009BC0C8F4882309F4F7C0883009F494C04E
:1043F000FF91EF91BF91AF919F918F917F916F91BD
:104400005F914F913F912F910F900BBE0F900FBE78
:104410000F901F901895883109F486C0803241F7BB
:1044200080937A0514C0803409F49BC040F4803333
:10443000B9F38833E9F680937A0585ECAEC0803510
:1044400009F483C0883509F494C0883489F60E9441
:10445000D61ECECF883909F48AC038F5883729F0BE
:1044600050F4883611F0803719F683E080937B058D
:104470001092790555C0883809F479C0803919F04F
:10448000803809F0B5CF80917905803208F06FC08F
:10449000E091790581E08E0F809379058091BB00D2
:1044A000F0E0E75AFA4F80833BC0803B39F0D0F40C
:1044B000803A09F477C0883A09F09ACF84E0809373
:1044C0007B051092580510925705F0E0E0E0199531
:1044D0008091570581110FC081E08093570510929C
:1044E000370509C0803C09F4A8CF883C09F4A5CF62
:1044F000883B09F07DCFE091580581E08E0F8093D5
:104500005805F0E0E95CFA4F80818093BB00909100
:1045100058058091570529C08091A0058093BB0064
:1045200085EC8093BC0064CF90919F0580919E059F
:10453000981758F5E0919F0581E08E0F80939F05B5
:10454000F0E0E258FA4F8081E9CFE0919F0581E0E9
:104550008E0F80939F058091BB00F0E0E258FA4FE8
:10456000808390919F0580919E059817C8F285E8F9
:10457000D8CFE0919F0581E08E0F80939F058091B9
:10458000BB00F0E0E258FA4F808380917D058111F5
:104590005ECF81E080937C0584EA8093BC0010921A
:1045A0007B0526CF85EC8093BC0010927B05809123
:1045B0007905803230F4E0917905F0E0E75AFA4F5E
:1045C00010826091790570E089E595E0F0E0E0E027
:1045D0001995109279050CCF10927A0538CF109268
:1045E00004061092030688EE93E0A0E0B0E080930A
:1045F000050690930606A0930706B093080681E48B
:1046000092E0909302068093010685EC90E09093EF
:104610000E0680930D0684EC90E090931006809334
:104620000F0680EC90E0909312068093110681ECC7
:1046300090E0909314068093130682EC90E09093A0
:1046400016068093150686EC90E0909318068093EA
:10465000170610921A0610921B0610921C06109252
:104660001D06109211071092100720EF30E03093D2
:1046700013072093120780E491E09093150780932D
:104680001407309317072093160790931907809308
:1046900018071092240710921B0710921A07109205
:1046A0001D0710921C0781E0809323078093220747
:1046B0002FEF3FEF309321072093200730931F0700
:1046C00020931E0780932507109226071092280733
:1046D000109227071092430788E0809344078AE0EE
:1046E0008093450789E0809346071092480710920F
:1046F000470710924A071092490710924B071092F1
:104700004C0710924D0710924E0710924F071092CF
:1047100050078EE996E090932E0780932D07E7E5EA
:10472000F9E0E491F0E0EE0FFF1FEC5CF64F8591AD
:10473000949190932C0780932B07E7EFF8E08491F6
:1047400080934107E8E5F9E0E491F0E0EE0FFF1F08
:10475000EC5CF64F2591349130932A07209329077A
:10476000E8EFF8E0E491E0933F07E095E09340073D
:10477000E82FE095E09342078DE592E090930F07D4
:1047800080930E071092A1061092A5061092A4061F
:104790001092A60683E592E09093A00680939F0670
:1047A000EBEBF6E087EF96E010821482138215821D
:1047B00036968E179F07C1F78DE292E0909302071D
:1047C000809301078AE292E09093040780930307A5
:1047D00084E08093050783E08093060781E392E0FD
:1047E000909300078093FF068AE090E0909308077B
:1047F0008093070784EF91E090930A07809309075D
:1048000010920D0710920C071092FB061092FC06F6
:104810001092FD061092FE0610920B070895CF939A
:10482000DF93CDB7DEB72E970FB6F894DEBF0FBE7D
:10483000CDBF789484B5826084BD84B5816084BD29
:1048400085B5826085BD85B5816085BD80916E002E
:10485000816080936E00109281008091810082605F
:10486000809381008091810081608093810080919C
:1048700080008160809380008091B100846080938B
:10488000B1008091B00081608093B0008091910070
:10489000826080939100809191008160809391006B
:1048A000809190008160809390008091A10082604F
:1048B0008093A1008091A10081608093A1008091EC
:1048C000A00081608093A00080912101826080938C
:1048D000210180912101816080932101809120013B
:1048E00081608093200180917A00846080937A00B7
:1048F00080917A00826080937A0080917A00816052
:1049000080937A0080917A00806880937A00109278
:10491000C100E0911106F091120682E08083E091DF
:104920000D06F0910E061082E0910F06F091100630
:104930008FEC808310921906E0911506F09116060F
:1049400086E08083E0911306F091140680818061F7
:104950008083E0911306F091140680818860808343
:10496000E0911306F0911406808180688083E091C5
:104970001306F091140680818F7D80838FE298E08A
:104980000E941F0A62EE73E081E096E00E94EA173F
:1049900040E050E0BA018EE097E00E94AB1D60E07D
:1049A0008EE097E00E94FC1070E060E08EE097E0FF
:1049B0000E94AA150FE110E022E330E048EC50E03D
:1049C0006EE170E084E190E00E945D1722E030E04B
:1049D0004FEF5FEF6AE270E085EE93E00E94781897
:1049E00008E012E42EE130E048E750E06FE570E0C7
:1049F0008CE390E00E945D1721E030E04FEF57E03C
:104A000066E670E083EF93E00E94781822E030E0E1
:104A100040EE5FEF6CE870E08FEF93E00E94781853
:104A200068E775E080E090E00E94520870E060E086
:104A30008EE097E00E94AA1522E030E040EE57E0B9
:104A400062E370E084E094E00E94781823E030E0B4
:104A50004FEF5FEF60E570E081E194E00E9478182D
:104A600022E030E04FEF57E068E770E086E194E045
:104A70000E94781822E030E040EE5FEF60EA70E0DC
:104A800082E294E00E94781860EB74E080E090E0AD
:104A90000E94520861E08EE10E94DF0560E08EE135
:104AA0000E94B10561E08FE10E94DF0560E08FE1C7
:104AB0000E94B10561E080E20E94DF0560E080E2D3
:104AC0000E94B10561E081E20E94DF0560E081E2C1
:104AD0000E94B10561E082E20E94DF0560E082E2AF
:104AE0000E94B10561E083E20E94DF0560E083E29D
:104AF0000E94B10562E087E30E94DF050E944B1F20
:104B00008FEF80931E0222242A94322C9E012F5F65
:104B10003F4F49010E9484082B013C0181E08093B2
:104B20000B070E9484080091FB061091FC0620915F
:104B3000FD063091FE06AB01BC01401B510B620B20
:104B4000730B8091070790910807B0E0A0E08417ED
:104B50009507A607B70708F088C410E080910507FD
:104B6000181760F4E0910107F0910207E10FF11DC1
:104B700062E080810E94DF051F5FF0CFD12C809121
:104B80000607D81608F067C0ED2CF12CE09103075A
:104B9000F0910407EE0DFF1D61E080810E94DF05AA
:104BA000E0910307F0910407EE0DFF1D60E08081A6
:104BB0000E94B10581E090E0A0E0B0E00D2C04C0BF
:104BC000880F991FAA1FBB1F0A94D2F75C01AC0182
:104BD000409550955C874B87C12C80910507C8167E
:104BE00018F50C2D10E0E0910107F0910207E00F9D
:104BF000F11F80810E9488050C5F1F4F000F111F5D
:104C0000F801E156F94F892B41F4808191818A297D
:104C10009B2991838083C394E0CF80819181AB8570
:104C2000BC858A239B23F5CFE0910307F09104070D
:104C3000EE0DFF1D61E080810E94B10580910307A8
:104C400090910407E80EF91E60E0F70180810E9450
:104C5000DF05D39494CF0FE916E07801D7015F9672
:104C60008D919C919097892B59F45C961C925C973E
:104C7000EFEFFFEF5E96FC93EE935D9791961C929B
:104C8000F6E0EF0EF11C2BED36E02E153F0531F767
:104C9000B12C80910507B81608F054C0A12CCB2C7C
:104CA000D12CCC0CDD1CA6014955594F6A0120912D
:104CB0000607A21608F044C0D6016D917C910A2C1B
:104CC00002C0769567950A94E2F7B29E900111248E
:104CD0002A0D311DEFE9F6E080E0458D568D241751
:104CE000350711F40C9459368F5F36968A30A9F740
:104CF00060FF24C0EFE9F6E090E080E0448D4111D0
:104D000018C0E091FF06F0910007E20FF31F408109
:104D1000B6E0B89FF001B99FF00D1124E156F94FAC
:104D2000448F368F258F10A2178E61E00E94900865
:104D300005C0019636968A30910501F7A394B7CF46
:104D4000B394A7CFD12CF80181A18111D82E0A5F8D
:104D50001F4FE016F106B9F70E9484086093FB0626
:104D60007093FC068093FD069093FE06DD2009F407
:104D70007CC38091C006882309F477C38091BE0666
:104D80009091BF06019709F070C38091BB06809394
:104D9000D7058A3209F46EC38091D205882339F190
:104DA0008091D3059091D405A091D505B091D605F9
:104DB000A3019201281B390B4A0B5B0BDA01C901D5
:104DC000893B9B40A105B10590F060E083E20E9421
:104DD000B1051092D2056BE574E081E096E00E9487
:104DE000EA1762EE73E081E096E00E94EA1786E33C
:104DF0000E941608BC01990F880B990B0E944D3A2E
:104E000020E030EC4FE754E40E94A33920E030E08A
:104E100048E452E40E94023B20E030E040E251E4EA
:104E20000E9431396B017C01C092CE05D092CF0532
:104E3000E092D005F092D10589E30E941608BC01EA
:104E4000990F880B990B0E944D3A20E030EC4FE708
:104E500054E40E94A33920E030E048EC52E40E9480
:104E6000023B609325027093260280932702909361
:104E7000280287E30E9488051091D205892B09F446
:104E800011E01093CD058091210290912202A09112
:104E90002302B09124028B879C87AD87BE8701E0F7
:104EA00020E030E0A901BC01CD010E949E39181616
:104EB0000CF400E00093CC0520E030E040E05FE33C
:104EC0006B857C858D859E850E9432399B01AC0166
:104ED000C701B6010E94FD3A18160CF0E7C281E046
:104EE0008093CB0561E08EE10E94B10561E081E233
:104EF0000E94B105602F82E20E94B105612F80E21D
:104F00000E94B105E091CA05BE2EEE2379F0C301DF
:104F1000B20128EB3BE040E050E00E940039E1E0C4
:104F2000603971408105910508F0E0E0E093C90522
:104F30001092C805112309F4DAC24091C4055091BA
:104F4000C5056091C6057091C705452B462B472BBB
:104F500041F44092C4055092C5056092C605709216
:104F6000C7054091C4055091C5056091C605709173
:104F7000C70573016201C41AD50AE60AF70AB1E14E
:104F8000CB16B7E2DB06E104F10408F4A9C298E508
:104F9000C92E92E0D92EE12CF12C0091C005109180
:104FA000C1052091C2053091C305D301C201801B08
:104FB000910BA20BB30B8C019D01C016D106E2062A
:104FC000F30608F0A4C291E09093C8054092C00592
:104FD0005092C1056092C2057092C305EE2311F490
:104FE0000C945C364CE251E060E070E080EE96E0BC
:104FF0000E941B060E9484080091A2051091A3053F
:105000002091A4053091A505601B710B820B930BB9
:10501000683E73408105910590F00E94840860937A
:10502000A2057093A3058093A4059093A505809194
:10503000B0058F5F8C3308F08AC28093B0058091F1
:10504000B805882389F10091B6051091B7050115BF
:10505000110551F10E948408C090A605D090A705C3
:10506000E090A805F090A9056C197D098E099F09AB
:10507000683E734081059105B8F00E9484086093F2
:10508000A6057093A7058093A8059093A9050150E4
:1050900011091093B7050093B605012B29F410925E
:1050A000B80581E08093CA058091BE059091BF0547
:1050B000992309F4F7C4863009F491C2873009F4C2
:1050C000FBC3853009F0EBC480911E02863009F4E1
:1050D00047C0F12CE12C00E411E020EF30E050E07B
:1050E00040E070E060E08EE097E00E94120D00EE7C
:1050F0001FEF2CE130E040EF50E070E060E090E026
:1051000080E00E945D1721E030E050E040E06AE07E
:1051100070E08BE794E00E94781821E030E048E1ED
:1051200056EC62E870E08CE894E00E94781821E088
:1051300030E048E156EC66E970E08DE994E00E94C9
:10514000781880E090ECA9E7B4EC80930802909383
:105150000902A0930A02B0930B0296E090931E02FC
:10516000C0902102D0902202E0902302F09024020D
:10517000209108023091090240910A0250910B02DD
:10518000C701B6010E949E39882309F46CC08401CE
:1051900021E044E0C701B6010E946736F4010190A6
:1051A0000020E9F73197E819F90988E18E9F90010D
:1051B0008F9F300D1124205D3F4F00EFC02ED12C6A
:1051C000C21AD30AD7FE03C0AFEFCA1ADA0AD594BF
:1051D000C794265F3F4FF12CE12C03E210E04CE333
:1051E00050E0B6018EE097E00E94970D84E0809336
:1051F0002207809323078FEF97E0909321078093F6
:10520000200790931F0780931E07B5E0CB0ED11C9B
:10521000D0921B07C0921A0781E490E090931D077B
:1052200080931C0767E473E08EE097E00E943F18CC
:10523000B4018EE097E00E943F186AE473E08EE0CC
:1052400097E00E943F188091210290912202A09144
:105250002302B09124028093080290930902A09344
:105260000A02B0930B028091D705823309F086C100
:1052700020E030E040E05FE3609121027091220283
:1052800080912302909124020E9432396B017C01AB
:1052900020E030E040E751E40E94FD3A181634F473
:1052A000C12CD12CB0E7EB2EB1E4FB2EC092210231
:1052B000D0922202E0922302F09224028091B20561
:1052C0009091B305A091B405B091B505A3019201E9
:1052D000281B390B4A0B5B0BDA01C901893E93404D
:1052E000A105B10508F4B8C04092B2055092B305CB
:1052F0006092B4057092B50581E798E00E941F0A9C
:1053000010911D021A3018F480E30E943A0A612FAE
:1053100070E090E080E04AE00E94F9178AE30E9482
:105320003A0A1091B1051A3018F480E30E943A0A43
:10533000612F70E090E080E04AE00E94F9178AE374
:105340000E943A0A1091B0051A3018F480E30E94C6
:105350003A0A612F70E090E080E04AE00E94F9177D
:105360008CE698E00E941F0A6091CE057091CF05EF
:105370008091D0059091D1050E94AF1887E698E002
:105380000E941F0A609121027091220280912302E3
:10539000909124020E94AF1883E698E00E941F0AB1
:1053A0006091250270912602809127029091280237
:1053B0000E94153A6B01770FEE08FF084AE0C7011B
:1053C000B601F7FE0BC08DE20E943A0A66277727E6
:1053D000CB016C197D098E099F094AE00E94F917DB
:1053E0008EE598E00E941F0A8091CD05882311F474
:1053F0000C94533681E40E943A0A8AE598E00E94B0
:105400001F0A8091CB05882311F40C94563681E352
:105410000E943A0A85E598E00E941F0A8091B8052B
:1054200060EB73E0811102C069EB73E081E096E00C
:105430000E943F1880E20E943A0A6091B60570917E
:10544000B70590E080E04AE00E94F91762EE73E051
:1054500081E096E00E94EA1764E170E080E090E06D
:105460000E9452080E945F0A55CB10920B071092BF
:10547000D70592CC61E083E20E94B1054092D3054A
:105480005092D4056092D5057092D60581E0809344
:10549000D20569E274E081E096E00E94EA1762EECC
:1054A00073E081E096E00E94EA1776CC20E030E0DD
:1054B00040E05FE36B857C858D859E850E94313958
:1054C0009B01AC01C701B6010E949E3987FF12CD36
:1054D0001092CB0560E08EE10E94B10560E007CD3F
:1054E00084ECC82E89E0D82EE12CF12C56CD1092F8
:1054F000C4051092C5051092C6051092C7051092FA
:10550000C0051092C1051092C2051092C305E111A9
:1055100069CD8091CD0581116DCDB1106BCD8FE13D
:105520000E94F70867CDD301C201841B950BA60B1F
:10553000B70B81319742A105B10510F40C94633685
:1055400088E795E044E650E060E070E051CD1092CD
:10555000B0058091B1058F5F8C3318F48093B1054D
:105560006ECD1092B10580911D028F5F883118F4C5
:1055700080931D0264CD10921D0261CD8833F9F431
:1055800020E030E040E05FE3609121027091220270
:1055900080912302909124020E9431396B017C0199
:1055A00020E030E040E251EC0E949E3987FF7ECE41
:1055B000C12CD12CA0E2EA2EA1ECFA2E77CE8533B5
:1055C00059F41092BF0581E08093BE058FEF809360
:1055D0001E020E944C1B72CE843399F36FCE8091D1
:1055E0001E02873009F444C0F12CE12C00E411E0E4
:1055F00020EF30E050E040E070E060E08EE097E0C7
:105600000E94120D00EE1FEF2CE130E040EF50E061
:1056100070E060E090E080E00E945D178091B90545
:105620008111EFC08AE693E021E030E050E040E0F5
:105630006AE070E00E94781821E030E048E156EC22
:1056400062E870E08CE894E00E94781821E030E095
:1056500048E156EC66E970E08CEA94E00E94781824
:105660008FEF809312028093110287E080931E02D5
:1056700080911D0290911202891709F440C01F9277
:105680008F938EE093E09F938F939F928F920E94CF
:10569000483C84E0809322078093230730922107BF
:1056A0002092200730921F0720921E07F12CE12C38
:1056B00000E210E020E330E04CE350E068E170E00D
:1056C0008EE097E00E94120D88E190E090931B0716
:1056D00080931A078CE390E090931D0780931C073A
:1056E000B4018EE097E00E943F1880911D028093E4
:1056F00012020F900F900F900F900F900F908091CB
:1057000012028F3FF9F484E08093220780932307ED
:10571000309221072092200730921F0720921E0707
:1057200088E490E090931B0780931A078CE390E045
:1057300090931D0780931C0765E573E08EE097E06A
:105740000E943F188091B10590911102891799F13B
:105750001F928F938EE093E09F938F939F928F92EF
:105760000E94483CF12CE12C00E210E020E330E004
:105770004CE350E060E670E08EE097E00E94120D8E
:1057800080E690E090931B0780931A078CE390E0EB
:1057900090931D0780931C07B4018EE097E00E9450
:1057A0003F188091B105809311020F900F900F90D8
:1057B0000F900F900F908091D705823381F58091E3
:1057C000B905811121C080911D0290E0019668E128
:1057D00070E00E94183C80931D021092B0058091E9
:1057E000D705843309F06ACD1092B9051092BF0530
:1057F00081E08093BE058FEF80931E020E94A61A5F
:105800005DCD87E793E010CF8091B10590E00196E0
:105810006CE370E00E94183C8093B105DECF8833C2
:10582000D1F48091B90581110BC080911D0290E0E7
:10583000479668E170E00E94183C80931D02CFCF2C
:105840008091B10590E0CB966CE370E00E94183C2B
:105850008093B105C4CF853311F68091B9058111CC
:105860001EC081E08093B905F0EEEF2EFF24FA947C
:105870000CE110E020EF30E050E040E070E060E04C
:105880008EE097E00E94120D21E030E050E040E011
:105890006AE070E087E793E00E947818A0CF10924A
:1058A000B9051092BF0582E08093BE058FEF80930B
:1058B0001E020E94A61A93CF80911E02883009F41E
:1058C0003FC0F12CE12C00E411E020EF30E050E08B
:1058D00040E070E060E08EE097E00E94120D00EE84
:1058E0001FEF2CE130E040EF50E070E060E090E02E
:1058F00080E00E945D1721E030E050E040E06AE087
:1059000070E087EC94E00E94781821E030E048E1F4
:1059100056EC62E870E085ED94E00E94781821E092
:1059200030E048E156EC66E970E08EEE94E00E94CB
:105930007818309216022092150288E080931E0299
:1059400080911F02909120026CE370E00E94043C61
:105950009F938F937F936F9389E093E09F938F93AF
:105960009F928F920E94483C0FB6F894DEBF0FBE04
:10597000CDBF20911F02309120028091150290919D
:10598000160228173907B1F184E08093220780932B
:1059900023078FEF97E09093210780932007909340
:1059A0001F0780931E07F12CE12C03E210E02AEC84
:1059B00030E04CE350E068E170E08EE097E00E9458
:1059C000120D8DE190E090931B0780931A0781E4FC
:1059D00090E090931D0780931C07B4018EE097E040
:1059E0000E943F1880911F0290912002909316020E
:1059F000809315028091D7058233F9F480911F02BC
:105A000090912002CC968533F7E19F0710F084E354
:105A100097E19093200280931F028091D7058433F1
:105A200009F04CCC1092BF0583E08093BE058FEF48
:105A300080931E020E94541941CC883349F480910E
:105A40001F02909120028C33910538F3CC97E1CF5F
:105A5000853319F720911F02309120023093B7054A
:105A60002093B60581E0232B09F480E08093B805EC
:105A70001092CA050E9484086093A6057093A7053A
:105A80008093A8059093A9051092BF0583E08093A9
:105A9000BE058FEF80931E020E945419BECF109254
:105AA000BF050CCC9091D705923309F0DEC290E08F
:105AB000049665E070E00E94183C8093BE05109249
:105AC000BA051092BB051092BC051092BD059091CD
:105AD000BE0580911E029817C1F00E944B1F809155
